{
  "contractName": "VarunContract",
  "abi": [
    {
      "inputs": [],
      "stateMutability": "nonpayable",
      "type": "constructor"
    },
    {
      "inputs": [
        {
          "internalType": "address",
          "name": "",
          "type": "address"
        }
      ],
      "name": "balance",
      "outputs": [
        {
          "internalType": "uint256",
          "name": "",
          "type": "uint256"
        }
      ],
      "stateMutability": "view",
      "type": "function"
    },
    {
      "inputs": [
        {
          "internalType": "uint256",
          "name": "",
          "type": "uint256"
        }
      ],
      "name": "bettors",
      "outputs": [
        {
          "internalType": "address",
          "name": "",
          "type": "address"
        }
      ],
      "stateMutability": "view",
      "type": "function"
    },
    {
      "inputs": [
        {
          "internalType": "address",
          "name": "",
          "type": "address"
        }
      ],
      "name": "hasBet",
      "outputs": [
        {
          "internalType": "bool",
          "name": "",
          "type": "bool"
        }
      ],
      "stateMutability": "view",
      "type": "function"
    },
    {
      "inputs": [
        {
          "internalType": "address",
          "name": "",
          "type": "address"
        }
      ],
      "name": "isBetting",
      "outputs": [
        {
          "internalType": "bool",
          "name": "",
          "type": "bool"
        }
      ],
      "stateMutability": "view",
      "type": "function"
    },
    {
      "inputs": [],
      "name": "name",
      "outputs": [
        {
          "internalType": "string",
          "name": "",
          "type": "string"
        }
      ],
      "stateMutability": "view",
      "type": "function"
    },
    {
      "inputs": [],
      "name": "owner",
      "outputs": [
        {
          "internalType": "address",
          "name": "",
          "type": "address"
        }
      ],
      "stateMutability": "view",
      "type": "function"
    },
    {
      "inputs": [],
      "name": "test",
      "outputs": [
        {
          "internalType": "uint256",
          "name": "",
          "type": "uint256"
        }
      ],
      "stateMutability": "view",
      "type": "function"
    },
    {
      "inputs": [
        {
          "internalType": "uint256",
          "name": "_amount",
          "type": "uint256"
        }
      ],
      "name": "bet",
      "outputs": [],
      "stateMutability": "nonpayable",
      "type": "function"
    },
    {
      "inputs": [],
      "name": "payUser",
      "outputs": [
        {
          "internalType": "uint256",
          "name": "",
          "type": "uint256"
        }
      ],
      "stateMutability": "nonpayable",
      "type": "function"
    },
    {
      "inputs": [],
      "name": "random",
      "outputs": [
        {
          "internalType": "uint256",
          "name": "",
          "type": "uint256"
        }
      ],
      "stateMutability": "view",
      "type": "function"
    }
  ],
  "bytecode": "0x60806040526040518060400160405280600e81526020017f766172756e20636f6e74726163740000000000000000000000000000000000008152506000908051906020019061004f9291906100a8565b50600160025534801561006157600080fd5b5033600160006101000a81548173ffffffffffffffffffffffffffffffffffffffff021916908373ffffffffffffffffffffffffffffffffffffffff1602179055506101ac565b8280546100b49061014b565b90600052602060002090601f0160209004810192826100d6576000855561011d565b82601f106100ef57805160ff191683800117855561011d565b8280016001018555821561011d579182015b8281111561011c578251825591602001919060010190610101565b5b50905061012a919061012e565b5090565b5b8082111561014757600081600090555060010161012f565b5090565b6000600282049050600182168061016357607f821691505b602082108114156101775761017661017d565b5b50919050565b7f4e487b7100000000000000000000000000000000000000000000000000000000600052602260045260246000fd5b61094a806101bb6000396000f3fe608060405234801561001057600080fd5b506004361061009e5760003560e01c80637365870b116100665780637365870b1461015d5780638da5cb5b14610179578063ba58177214610197578063e3d670d7146101c7578063f8a8fd6d146101f75761009e565b806306fdde03146100a3578063136f1016146100c157806333f2537a146100f15780633482b6441461010f5780635ec01e4d1461013f575b600080fd5b6100ab610215565b6040516100b89190610672565b60405180910390f35b6100db60048036038101906100d69190610584565b6102a3565b6040516100e89190610657565b60405180910390f35b6100f96102c3565b6040516101069190610694565b60405180910390f35b610129600480360381019061012491906105ad565b6102e5565b604051610136919061063c565b60405180910390f35b610147610324565b6040516101549190610694565b60405180910390f35b610177600480360381019061017291906105ad565b610338565b005b6101816104f6565b60405161018e919061063c565b60405180910390f35b6101b160048036038101906101ac9190610584565b61051c565b6040516101be9190610657565b60405180910390f35b6101e160048036038101906101dc9190610584565b61053c565b6040516101ee9190610694565b60405180910390f35b6101ff610554565b60405161020c9190610694565b60405180910390f35b600080546102229061079c565b80601f016020809104026020016040519081016040528092919081815260200182805461024e9061079c565b801561029b5780601f106102705761010080835404028352916020019161029b565b820191906000526020600020905b81548152906001019060200180831161027e57829003601f168201915b505050505081565b60056020528060005260406000206000915054906101000a900460ff1681565b6000600260008154809291906102d8906107ce565b9190505550600254905090565b600381815481106102f557600080fd5b906000526020600020016000915054906101000a900473ffffffffffffffffffffffffffffffffffffffff1681565b60006002436103339190610817565b905090565b80600460003373ffffffffffffffffffffffffffffffffffffffff1673ffffffffffffffffffffffffffffffffffffffff168152602001908152602001600020600082825461038791906106cb565b92505081905550600560003373ffffffffffffffffffffffffffffffffffffffff1673ffffffffffffffffffffffffffffffffffffffff16815260200190815260200160002060009054906101000a900460ff16610443576003339080600181540180825580915050600190039060005260206000200160009091909190916101000a81548173ffffffffffffffffffffffffffffffffffffffff021916908373ffffffffffffffffffffffffffffffffffffffff1602179055505b6001600560003373ffffffffffffffffffffffffffffffffffffffff1673ffffffffffffffffffffffffffffffffffffffff16815260200190815260200160002060006101000a81548160ff0219169083151502179055506001600660003373ffffffffffffffffffffffffffffffffffffffff1673ffffffffffffffffffffffffffffffffffffffff16815260200190815260200160002060006101000a81548160ff02191690831515021790555050565b600160009054906101000a900473ffffffffffffffffffffffffffffffffffffffff1681565b60066020528060005260406000206000915054906101000a900460ff1681565b60046020528060005260406000206000915090505481565b60025481565b600081359050610569816108e6565b92915050565b60008135905061057e816108fd565b92915050565b60006020828403121561059657600080fd5b60006105a48482850161055a565b91505092915050565b6000602082840312156105bf57600080fd5b60006105cd8482850161056f565b91505092915050565b6105df81610721565b82525050565b6105ee81610733565b82525050565b60006105ff826106af565b61060981856106ba565b9350610619818560208601610769565b610622816108d5565b840191505092915050565b6106368161075f565b82525050565b600060208201905061065160008301846105d6565b92915050565b600060208201905061066c60008301846105e5565b92915050565b6000602082019050818103600083015261068c81846105f4565b905092915050565b60006020820190506106a9600083018461062d565b92915050565b600081519050919050565b600082825260208201905092915050565b60006106d68261075f565b91506106e18361075f565b9250827fffffffffffffffffffffffffffffffffffffffffffffffffffffffffffffffff0382111561071657610715610848565b5b828201905092915050565b600061072c8261073f565b9050919050565b60008115159050919050565b600073ffffffffffffffffffffffffffffffffffffffff82169050919050565b6000819050919050565b60005b8381101561078757808201518184015260208101905061076c565b83811115610796576000848401525b50505050565b600060028204905060018216806107b457607f821691505b602082108114156107c8576107c76108a6565b5b50919050565b60006107d98261075f565b91507fffffffffffffffffffffffffffffffffffffffffffffffffffffffffffffffff82141561080c5761080b610848565b5b600182019050919050565b60006108228261075f565b915061082d8361075f565b92508261083d5761083c610877565b5b828206905092915050565b7f4e487b7100000000000000000000000000000000000000000000000000000000600052601160045260246000fd5b7f4e487b7100000000000000000000000000000000000000000000000000000000600052601260045260246000fd5b7f4e487b7100000000000000000000000000000000000000000000000000000000600052602260045260246000fd5b6000601f19601f8301169050919050565b6108ef81610721565b81146108fa57600080fd5b50565b6109068161075f565b811461091157600080fd5b5056fea2646970667358221220d058ade339b5f81f923569b918d474f183a8f91697376c17d5ca10bb0d3f525e64736f6c63430008030033",
  "immutableReferences": {},
  "source": "pragma solidity ^0.8.3;\n\ncontract VarunContract {\n    string public name = \"varun contract\";\n    address public owner;\n    uint256 public test = 1;\n\n    constructor() {\n        owner = msg.sender;\n    }\n\n    address[] public bettors;\n    mapping(address => uint256) public balance;\n    mapping(address => bool) public hasBet;\n    mapping(address => bool) public isBetting;\n\n    /**\n     * @param _amount the amount the user bets\n     *\n     *\n     */\n    function bet(uint256 _amount) public {\n        balance[msg.sender] += _amount;\n\n        if (!hasBet[msg.sender]) {\n            bettors.push(msg.sender);\n        }\n        hasBet[msg.sender] = true;\n        isBetting[msg.sender] = true;\n    }\n\n    function payUser() public returns (uint256) {\n        test++;\n        return test;\n    }\n\n    function random() public view returns (uint256) {\n        // Not secure, use ChainLink in production\n        return (block.number % 2);\n    }\n}\n",
  "sourcePath": "/Users/varuns/Documents/blockchain/blockchain-page/blockchain/src/contracts/VarunContract.sol",
  "compiler": {
    "name": "solc",
    "version": "0.8.3+commit.8d00100c.Emscripten.clang"
  },
  "schemaVersion": "3.3.4",
  "updatedAt": "2021-04-10T08:51:48.384Z",
  "devdoc": {
    "kind": "dev",
    "methods": {
      "bet(uint256)": {
        "params": {
          "_amount": "the amount the user bets"
        }
      }
    },
    "version": 1
  },
  "userdoc": {
    "kind": "user",
    "methods": {},
    "version": 1
  }
}