{
  "contractName": "VarunContract",
  "abi": [
    {
      "inputs": [],
      "stateMutability": "nonpayable",
      "type": "constructor"
    },
    {
      "inputs": [],
      "name": "balance",
      "outputs": [
        {
          "internalType": "uint256",
          "name": "",
          "type": "uint256"
        }
      ],
      "stateMutability": "view",
      "type": "function"
    },
    {
      "inputs": [
        {
          "internalType": "address",
          "name": "",
          "type": "address"
        }
      ],
      "name": "betAmount",
      "outputs": [
        {
          "internalType": "uint256",
          "name": "",
          "type": "uint256"
        }
      ],
      "stateMutability": "view",
      "type": "function"
    },
    {
      "inputs": [],
      "name": "bettor",
      "outputs": [
        {
          "internalType": "address payable",
          "name": "",
          "type": "address"
        }
      ],
      "stateMutability": "view",
      "type": "function"
    },
    {
      "inputs": [
        {
          "internalType": "uint256",
          "name": "_amount",
          "type": "uint256"
        },
        {
          "internalType": "uint256",
          "name": "_betOn",
          "type": "uint256"
        }
      ],
      "name": "bet",
      "outputs": [],
      "stateMutability": "payable",
      "type": "function"
    },
    {
      "inputs": [],
      "name": "getResult",
      "outputs": [],
      "stateMutability": "payable",
      "type": "function"
    },
    {
      "inputs": [],
      "name": "random",
      "outputs": [
        {
          "internalType": "uint256",
          "name": "",
          "type": "uint256"
        }
      ],
      "stateMutability": "view",
      "type": "function"
    }
  ],
  "bytecode": "0x608060405234801561001057600080fd5b50336000806101000a81548173ffffffffffffffffffffffffffffffffffffffff021916908373ffffffffffffffffffffffffffffffffffffffff1602179055503073ffffffffffffffffffffffffffffffffffffffff16316001819055506105198061007e6000396000f3fe6080604052600436106100555760003560e01c806334aa7e001461005a5780635ec01e4d146100975780636ffcc719146100c2578063afe9d22f146100de578063b69ef8a814610109578063de29278914610134575b600080fd5b34801561006657600080fd5b50610081600480360381019061007c919061034e565b61013e565b60405161008e91906103ec565b60405180910390f35b3480156100a357600080fd5b506100ac610156565b6040516100b991906103ec565b60405180910390f35b6100dc60048036038101906100d79190610377565b61016a565b005b3480156100ea57600080fd5b506100f3610219565b60405161010091906103d1565b60405180910390f35b34801561011557600080fd5b5061011e61023d565b60405161012b91906103ec565b60405180910390f35b61013c610243565b005b60036020528060005260406000206000915090505481565b60006002436101659190610455565b905090565b3373ffffffffffffffffffffffffffffffffffffffff1660008054906101000a900473ffffffffffffffffffffffffffffffffffffffff1673ffffffffffffffffffffffffffffffffffffffff16146101c257600080fd5b81600360003373ffffffffffffffffffffffffffffffffffffffff1673ffffffffffffffffffffffffffffffffffffffff1681526020019081526020016000208190555080600281905550610215610243565b5050565b60008054906101000a900473ffffffffffffffffffffffffffffffffffffffff1681565b60015481565b600061024d610156565b90508060025414156103215760008054906101000a900473ffffffffffffffffffffffffffffffffffffffff1673ffffffffffffffffffffffffffffffffffffffff166108fc600360008060009054906101000a900473ffffffffffffffffffffffffffffffffffffffff1673ffffffffffffffffffffffffffffffffffffffff1673ffffffffffffffffffffffffffffffffffffffff168152602001908152602001600020549081150290604051600060405180830381858888f1935050505015801561031f573d6000803e3d6000fd5b505b50565b600081359050610333816104b5565b92915050565b600081359050610348816104cc565b92915050565b60006020828403121561036057600080fd5b600061036e84828501610324565b91505092915050565b6000806040838503121561038a57600080fd5b600061039885828601610339565b92505060206103a985828601610339565b9150509250929050565b6103bc81610419565b82525050565b6103cb8161044b565b82525050565b60006020820190506103e660008301846103b3565b92915050565b600060208201905061040160008301846103c2565b92915050565b60006104128261042b565b9050919050565b60006104248261042b565b9050919050565b600073ffffffffffffffffffffffffffffffffffffffff82169050919050565b6000819050919050565b60006104608261044b565b915061046b8361044b565b92508261047b5761047a610486565b5b828206905092915050565b7f4e487b7100000000000000000000000000000000000000000000000000000000600052601260045260246000fd5b6104be81610407565b81146104c957600080fd5b50565b6104d58161044b565b81146104e057600080fd5b5056fea2646970667358221220e87506abfe4cab5bdde39cfedbbddf1f1d6965016d2dd6e8116d38e0801f5b3e64736f6c63430008030033",
  "immutableReferences": {},
  "source": "pragma solidity ^0.8.3;\n\ncontract VarunContract {\n    address payable public bettor;\n    uint256 public balance;\n\n    uint256 betOn;\n\n    constructor() {\n        bettor = payable(msg.sender);\n        balance = address(this).balance;\n    }\n\n    mapping(address => uint256) public betAmount;\n\n    /**\n     * @param _amount the amount the user bets\n     *\n     *\n     */\n    function bet(uint256 _amount, uint256 _betOn) public payable {\n        require(bettor == msg.sender);\n        betAmount[msg.sender] = _amount;\n        betOn = _betOn;\n        getResult();\n    }\n\n    function getResult() public payable {\n        uint256 result = random();\n        if (betOn == result) {\n            bettor.transfer(betAmount[bettor]);\n        }\n    }\n\n    function random() public view returns (uint256) {\n        // Not secure, use ChainLink in production\n        return (block.number % 2);\n    }\n}\n",
  "sourcePath": "/Users/varuns/Documents/blockchain/blockchain-page/blockchain/src/contracts/VarunContract.sol",
  "compiler": {
    "name": "solc",
    "version": "0.8.3+commit.8d00100c.Emscripten.clang"
  },
  "schemaVersion": "3.3.4",
  "updatedAt": "2021-04-10T20:51:15.810Z",
  "devdoc": {
    "kind": "dev",
    "methods": {
      "bet(uint256,uint256)": {
        "params": {
          "_amount": "the amount the user bets"
        }
      }
    },
    "version": 1
  },
  "userdoc": {
    "kind": "user",
    "methods": {},
    "version": 1
  }
}